{
  "contractName": "EmployeeIncentive",
  "abi": [
    {
      "inputs": [],
      "stateMutability": "nonpayable",
      "type": "constructor"
    },
    {
      "anonymous": false,
      "inputs": [
        {
          "indexed": true,
          "internalType": "address",
          "name": "employee",
          "type": "address"
        },
        {
          "indexed": false,
          "internalType": "uint256",
          "name": "amount",
          "type": "uint256"
        }
      ],
      "name": "IncentivePaid",
      "type": "event"
    },
    {
      "inputs": [
        {
          "internalType": "uint256",
          "name": "",
          "type": "uint256"
        }
      ],
      "name": "employeeAddresses",
      "outputs": [
        {
          "internalType": "address",
          "name": "",
          "type": "address"
        }
      ],
      "stateMutability": "view",
      "type": "function"
    },
    {
      "inputs": [
        {
          "internalType": "address",
          "name": "",
          "type": "address"
        }
      ],
      "name": "employees",
      "outputs": [
        {
          "internalType": "uint256",
          "name": "id",
          "type": "uint256"
        },
        {
          "internalType": "string",
          "name": "name",
          "type": "string"
        },
        {
          "internalType": "uint256",
          "name": "incentive",
          "type": "uint256"
        }
      ],
      "stateMutability": "view",
      "type": "function"
    },
    {
      "inputs": [],
      "name": "owner",
      "outputs": [
        {
          "internalType": "address",
          "name": "",
          "type": "address"
        }
      ],
      "stateMutability": "view",
      "type": "function"
    },
    {
      "inputs": [
        {
          "internalType": "address",
          "name": "_employeeAddress",
          "type": "address"
        },
        {
          "internalType": "uint256",
          "name": "_id",
          "type": "uint256"
        },
        {
          "internalType": "string",
          "name": "_name",
          "type": "string"
        }
      ],
      "name": "addEmployee",
      "outputs": [],
      "stateMutability": "nonpayable",
      "type": "function"
    },
    {
      "inputs": [
        {
          "internalType": "address",
          "name": "_employeeAddress",
          "type": "address"
        },
        {
          "internalType": "uint256",
          "name": "_amount",
          "type": "uint256"
        }
      ],
      "name": "payIncentive",
      "outputs": [],
      "stateMutability": "nonpayable",
      "type": "function"
    },
    {
      "inputs": [
        {
          "internalType": "address",
          "name": "_employeeAddress",
          "type": "address"
        }
      ],
      "name": "getEmployee",
      "outputs": [
        {
          "internalType": "uint256",
          "name": "",
          "type": "uint256"
        },
        {
          "internalType": "string",
          "name": "",
          "type": "string"
        },
        {
          "internalType": "uint256",
          "name": "",
          "type": "uint256"
        }
      ],
      "stateMutability": "view",
      "type": "function"
    },
    {
      "inputs": [],
      "name": "getAllEmployees",
      "outputs": [
        {
          "internalType": "address[]",
          "name": "",
          "type": "address[]"
        }
      ],
      "stateMutability": "view",
      "type": "function"
    }
  ],
  "bytecode": "0x608060405234801561000f575f80fd5b50335f806101000a81548173ffffffffffffffffffffffffffffffffffffffff021916908373ffffffffffffffffffffffffffffffffffffffff1602179055506111cb8061005c5f395ff3fe608060405234801561000f575f80fd5b506004361061007b575f3560e01c806399e18aa11161005957806399e18aa1146100ff578063a36f1a641461011b578063d067894714610137578063e3366fed146101695761007b565b806332648e091461007f5780637521720b146100b15780638da5cb5b146100e1575b5f80fd5b610099600480360381019061009491906108c2565b610187565b6040516100a89392919061098f565b60405180910390f35b6100cb60048036038101906100c691906109f5565b610316565b6040516100d89190610a2f565b60405180910390f35b6100e9610351565b6040516100f69190610a2f565b60405180910390f35b61011960048036038101906101149190610b74565b610374565b005b61013560048036038101906101309190610be0565b61056a565b005b610151600480360381019061014c91906108c2565b610720565b6040516101609392919061098f565b60405180910390f35b6101716107cc565b60405161017e9190610cd5565b60405180910390f35b5f60605f8060015f8673ffffffffffffffffffffffffffffffffffffffff1673ffffffffffffffffffffffffffffffffffffffff1681526020019081526020015f205f01540361020c576040517f08c379a000000000000000000000000000000000000000000000000000000000815260040161020390610d3f565b60405180910390fd5b5f60015f8673ffffffffffffffffffffffffffffffffffffffff1673ffffffffffffffffffffffffffffffffffffffff1681526020019081526020015f206040518060600160405290815f820154815260200160018201805461026e90610d8a565b80601f016020809104026020016040519081016040528092919081815260200182805461029a90610d8a565b80156102e55780601f106102bc576101008083540402835291602001916102e5565b820191905f5260205f20905b8154815290600101906020018083116102c857829003601f168201915b505050505081526020016002820154815250509050805f015181602001518260400151935093509350509193909250565b60028181548110610325575f80fd5b905f5260205f20015f915054906101000a900473ffffffffffffffffffffffffffffffffffffffff1681565b5f8054906101000a900473ffffffffffffffffffffffffffffffffffffffff1681565b5f8054906101000a900473ffffffffffffffffffffffffffffffffffffffff1673ffffffffffffffffffffffffffffffffffffffff163373ffffffffffffffffffffffffffffffffffffffff1614610401576040517f08c379a00000000000000000000000000000000000000000000000000000000081526004016103f890610e2a565b60405180910390fd5b5f60015f8573ffffffffffffffffffffffffffffffffffffffff1673ffffffffffffffffffffffffffffffffffffffff1681526020019081526020015f205f015414610482576040517f08c379a000000000000000000000000000000000000000000000000000000000815260040161047990610e92565b60405180910390fd5b60405180606001604052808381526020018281526020015f81525060015f8573ffffffffffffffffffffffffffffffffffffffff1673ffffffffffffffffffffffffffffffffffffffff1681526020019081526020015f205f820151815f015560208201518160010190816104f7919061104d565b5060408201518160020155905050600283908060018154018082558091505060019003905f5260205f20015f9091909190916101000a81548173ffffffffffffffffffffffffffffffffffffffff021916908373ffffffffffffffffffffffffffffffffffffffff160217905550505050565b5f8054906101000a900473ffffffffffffffffffffffffffffffffffffffff1673ffffffffffffffffffffffffffffffffffffffff163373ffffffffffffffffffffffffffffffffffffffff16146105f7576040517f08c379a00000000000000000000000000000000000000000000000000000000081526004016105ee90610e2a565b60405180910390fd5b5f60015f8473ffffffffffffffffffffffffffffffffffffffff1673ffffffffffffffffffffffffffffffffffffffff1681526020019081526020015f205f015403610678576040517f08c379a000000000000000000000000000000000000000000000000000000000815260040161066f90610d3f565b60405180910390fd5b8060015f8473ffffffffffffffffffffffffffffffffffffffff1673ffffffffffffffffffffffffffffffffffffffff1681526020019081526020015f206002015f8282546106c79190611149565b925050819055508173ffffffffffffffffffffffffffffffffffffffff167f5c0f778ca533612b244748fde18e1d8915de8041c87f012f9435fd7418ad585682604051610714919061117c565b60405180910390a25050565b6001602052805f5260405f205f91509050805f01549080600101805461074590610d8a565b80601f016020809104026020016040519081016040528092919081815260200182805461077190610d8a565b80156107bc5780601f10610793576101008083540402835291602001916107bc565b820191905f5260205f20905b81548152906001019060200180831161079f57829003601f168201915b5050505050908060020154905083565b6060600280548060200260200160405190810160405280929190818152602001828054801561084d57602002820191905f5260205f20905b815f9054906101000a900473ffffffffffffffffffffffffffffffffffffffff1673ffffffffffffffffffffffffffffffffffffffff1681526020019060010190808311610804575b5050505050905090565b5f604051905090565b5f80fd5b5f80fd5b5f73ffffffffffffffffffffffffffffffffffffffff82169050919050565b5f61089182610868565b9050919050565b6108a181610887565b81146108ab575f80fd5b50565b5f813590506108bc81610898565b92915050565b5f602082840312156108d7576108d6610860565b5b5f6108e4848285016108ae565b91505092915050565b5f819050919050565b6108ff816108ed565b82525050565b5f81519050919050565b5f82825260208201905092915050565b5f5b8381101561093c578082015181840152602081019050610921565b5f8484015250505050565b5f601f19601f8301169050919050565b5f61096182610905565b61096b818561090f565b935061097b81856020860161091f565b61098481610947565b840191505092915050565b5f6060820190506109a25f8301866108f6565b81810360208301526109b48185610957565b90506109c360408301846108f6565b949350505050565b6109d4816108ed565b81146109de575f80fd5b50565b5f813590506109ef816109cb565b92915050565b5f60208284031215610a0a57610a09610860565b5b5f610a17848285016109e1565b91505092915050565b610a2981610887565b82525050565b5f602082019050610a425f830184610a20565b92915050565b5f80fd5b5f80fd5b7f4e487b71000000000000000000000000000000000000000000000000000000005f52604160045260245ffd5b610a8682610947565b810181811067ffffffffffffffff82111715610aa557610aa4610a50565b5b80604052505050565b5f610ab7610857565b9050610ac38282610a7d565b919050565b5f67ffffffffffffffff821115610ae257610ae1610a50565b5b610aeb82610947565b9050602081019050919050565b828183375f83830152505050565b5f610b18610b1384610ac8565b610aae565b905082815260208101848484011115610b3457610b33610a4c565b5b610b3f848285610af8565b509392505050565b5f82601f830112610b5b57610b5a610a48565b5b8135610b6b848260208601610b06565b91505092915050565b5f805f60608486031215610b8b57610b8a610860565b5b5f610b98868287016108ae565b9350506020610ba9868287016109e1565b925050604084013567ffffffffffffffff811115610bca57610bc9610864565b5b610bd686828701610b47565b9150509250925092565b5f8060408385031215610bf657610bf5610860565b5b5f610c03858286016108ae565b9250506020610c14858286016109e1565b9150509250929050565b5f81519050919050565b5f82825260208201905092915050565b5f819050602082019050919050565b610c5081610887565b82525050565b5f610c618383610c47565b60208301905092915050565b5f602082019050919050565b5f610c8382610c1e565b610c8d8185610c28565b9350610c9883610c38565b805f5b83811015610cc8578151610caf8882610c56565b9750610cba83610c6d565b925050600181019050610c9b565b5085935050505092915050565b5f6020820190508181035f830152610ced8184610c79565b905092915050565b7f456d706c6f79656520646f6573206e6f742065786973740000000000000000005f82015250565b5f610d2960178361090f565b9150610d3482610cf5565b602082019050919050565b5f6020820190508181035f830152610d5681610d1d565b9050919050565b7f4e487b71000000000000000000000000000000000000000000000000000000005f52602260045260245ffd5b5f6002820490506001821680610da157607f821691505b602082108103610db457610db3610d5d565b5b50919050565b7f4f6e6c7920746865206f776e65722063616e20706572666f726d2074686973205f8201527f616374696f6e0000000000000000000000000000000000000000000000000000602082015250565b5f610e1460268361090f565b9150610e1f82610dba565b604082019050919050565b5f6020820190508181035f830152610e4181610e08565b9050919050565b7f456d706c6f79656520616c7265616479206578697374730000000000000000005f82015250565b5f610e7c60178361090f565b9150610e8782610e48565b602082019050919050565b5f6020820190508181035f830152610ea981610e70565b9050919050565b5f819050815f5260205f209050919050565b5f6020601f8301049050919050565b5f82821b905092915050565b5f60088302610f0c7fffffffffffffffffffffffffffffffffffffffffffffffffffffffffffffffff82610ed1565b610f168683610ed1565b95508019841693508086168417925050509392505050565b5f819050919050565b5f610f51610f4c610f47846108ed565b610f2e565b6108ed565b9050919050565b5f819050919050565b610f6a83610f37565b610f7e610f7682610f58565b848454610edd565b825550505050565b5f90565b610f92610f86565b610f9d818484610f61565b505050565b5b81811015610fc057610fb55f82610f8a565b600181019050610fa3565b5050565b601f82111561100557610fd681610eb0565b610fdf84610ec2565b81016020851015610fee578190505b611002610ffa85610ec2565b830182610fa2565b50505b505050565b5f82821c905092915050565b5f6110255f198460080261100a565b1980831691505092915050565b5f61103d8383611016565b9150826002028217905092915050565b61105682610905565b67ffffffffffffffff81111561106f5761106e610a50565b5b6110798254610d8a565b611084828285610fc4565b5f60209050601f8311600181146110b5575f84156110a3578287015190505b6110ad8582611032565b865550611114565b601f1984166110c386610eb0565b5f5b828110156110ea578489015182556001820191506020850194506020810190506110c5565b868310156111075784890151611103601f891682611016565b8355505b6001600288020188555050505b505050505050565b7f4e487b71000000000000000000000000000000000000000000000000000000005f52601160045260245ffd5b5f611153826108ed565b915061115e836108ed565b92508282019050808211156111765761117561111c565b5b92915050565b5f60208201905061118f5f8301846108f6565b9291505056fea2646970667358221220cbdab34d070e1b41a0b560210d9e078087591516b92fe1432a4b32644ce244a664736f6c63430008150033",
  "immutableReferences": {},
  "source": "// SPDX-License-Identifier: MIT\r\npragma solidity ^0.8.0;\r\n\r\ncontract EmployeeIncentive {\r\n    address public owner;\r\n\r\n    struct Employee {\r\n        uint256 id;\r\n        string name;\r\n        uint256 incentive;\r\n    }\r\n\r\n    mapping(address => Employee) public employees;\r\n    address[] public employeeAddresses;\r\n\r\n    event IncentivePaid(address indexed employee, uint256 amount);\r\n\r\n    modifier onlyOwner() {\r\n        require(msg.sender == owner, \"Only the owner can perform this action\");\r\n        _;\r\n    }\r\n\r\n    constructor() {\r\n        owner = msg.sender;\r\n    }\r\n\r\n    function addEmployee(address _employeeAddress, uint256 _id, string memory _name) public onlyOwner {\r\n        require(employees[_employeeAddress].id == 0, \"Employee already exists\");\r\n        employees[_employeeAddress] = Employee(_id, _name, 0);\r\n        employeeAddresses.push(_employeeAddress);\r\n    }\r\n\r\n    function payIncentive(address _employeeAddress, uint256 _amount) public onlyOwner {\r\n        require(employees[_employeeAddress].id != 0, \"Employee does not exist\");\r\n        employees[_employeeAddress].incentive += _amount;\r\n        emit IncentivePaid(_employeeAddress, _amount);\r\n    }\r\n\r\n    function getEmployee(address _employeeAddress) public view returns (uint256, string memory, uint256) {\r\n        require(employees[_employeeAddress].id != 0, \"Employee does not exist\");\r\n        Employee memory emp = employees[_employeeAddress];\r\n        return (emp.id, emp.name, emp.incentive);\r\n    }\r\n\r\n    function getAllEmployees() public view returns (address[] memory) {\r\n        return employeeAddresses;\r\n    }\r\n}\r\n",
  "sourcePath": "C:\\Users\\sasik\\Downloads\\Employee-Incentive-Management-System-main\\contracts\\EmployeeIncentive.sol",
  "compiler": {
    "name": "solc",
    "version": "0.8.21+commit.d9974bed.Emscripten.clang"
  },
  "schemaVersion": "3.4.16",
  "updatedAt": "2024-12-18T10:40:00.739Z",
  "devdoc": {
    "kind": "dev",
    "methods": {},
    "version": 1
  },
  "userdoc": {
    "kind": "user",
    "methods": {},
    "version": 1
  }
}